{
  "contractName": "Market",
  "abi": [
    {
      "inputs": [
        {
          "internalType": "address",
          "name": "nftAddress",
          "type": "address"
        },
        {
          "internalType": "address",
          "name": "tokenAddress",
          "type": "address"
        }
      ],
      "payable": false,
      "stateMutability": "nonpayable",
      "type": "constructor"
    },
    {
      "anonymous": false,
      "inputs": [
        {
          "indexed": false,
          "internalType": "uint256",
          "name": "nftId",
          "type": "uint256"
        },
        {
          "indexed": true,
          "internalType": "address",
          "name": "prevOwner",
          "type": "address"
        }
      ],
      "name": "Purchase",
      "type": "event"
    },
    {
      "anonymous": false,
      "inputs": [
        {
          "indexed": false,
          "internalType": "uint256",
          "name": "nftId",
          "type": "uint256"
        },
        {
          "indexed": false,
          "internalType": "uint256",
          "name": "amount",
          "type": "uint256"
        }
      ],
      "name": "Register",
      "type": "event"
    },
    {
      "anonymous": false,
      "inputs": [
        {
          "indexed": false,
          "internalType": "uint256",
          "name": "nftId",
          "type": "uint256"
        }
      ],
      "name": "Unregister",
      "type": "event"
    },
    {
      "constant": true,
      "inputs": [
        {
          "internalType": "uint256",
          "name": "nftId",
          "type": "uint256"
        }
      ],
      "name": "getPrice",
      "outputs": [
        {
          "internalType": "uint256",
          "name": "",
          "type": "uint256"
        }
      ],
      "payable": false,
      "stateMutability": "view",
      "type": "function"
    },
    {
      "constant": false,
      "inputs": [
        {
          "internalType": "uint256",
          "name": "nftId",
          "type": "uint256"
        }
      ],
      "name": "purchase",
      "outputs": [],
      "payable": false,
      "stateMutability": "nonpayable",
      "type": "function"
    },
    {
      "constant": false,
      "inputs": [
        {
          "internalType": "uint256",
          "name": "nftId",
          "type": "uint256"
        },
        {
          "internalType": "uint256",
          "name": "amount",
          "type": "uint256"
        }
      ],
      "name": "register",
      "outputs": [],
      "payable": false,
      "stateMutability": "nonpayable",
      "type": "function"
    },
    {
      "constant": false,
      "inputs": [
        {
          "internalType": "uint256",
          "name": "nftId",
          "type": "uint256"
        }
      ],
      "name": "unregister",
      "outputs": [],
      "payable": false,
      "stateMutability": "nonpayable",
      "type": "function"
    }
  ],
  "bytecode": "0x608060405234801561001057600080fd5b506040516107c63803806107c68339818101604052604081101561003357600080fd5b81019080805190602001909291908051906020019092919050505081600160006101000a81548173ffffffffffffffffffffffffffffffffffffffff021916908373ffffffffffffffffffffffffffffffffffffffff16021790555080600260006101000a81548173ffffffffffffffffffffffffffffffffffffffff021916908373ffffffffffffffffffffffffffffffffffffffff16021790555050506106e5806100e16000396000f3fe608060405234801561001057600080fd5b506004361061004c5760003560e01c8063a02b161e14610051578063d66d6c101461007f578063e7572230146100b7578063efef39a1146100f9575b600080fd5b61007d6004803603602081101561006757600080fd5b8101908080359060200190929190505050610127565b005b6100b56004803603604081101561009557600080fd5b81019080803590602001909291908035906020019092919050505061025e565b005b6100e3600480360360208110156100cd57600080fd5b810190808035906020019092919050505061039d565b6040518082815260200191505060405180910390f35b6101256004803603602081101561010f57600080fd5b81019080803590602001909291905050506103b9565b005b3373ffffffffffffffffffffffffffffffffffffffff16600160009054906101000a900473ffffffffffffffffffffffffffffffffffffffff1673ffffffffffffffffffffffffffffffffffffffff1663c41a360a836040518263ffffffff1660e01b81526004018082815260200191505060206040518083038186803b1580156101b157600080fd5b505afa1580156101c5573d6000803e3d6000fd5b505050506040513d60208110156101db57600080fd5b810190808051906020019092919050505073ffffffffffffffffffffffffffffffffffffffff161461020c57600080fd5b6000806000838152602001908152602001600020819055507f98f986773731debbbf041b73d7edaec62da3ff42b2116c45cd0001fb40ed9086816040518082815260200191505060405180910390a150565b3373ffffffffffffffffffffffffffffffffffffffff16600160009054906101000a900473ffffffffffffffffffffffffffffffffffffffff1673ffffffffffffffffffffffffffffffffffffffff1663c41a360a846040518263ffffffff1660e01b81526004018082815260200191505060206040518083038186803b1580156102e857600080fd5b505afa1580156102fc573d6000803e3d6000fd5b505050506040513d602081101561031257600080fd5b810190808051906020019092919050505073ffffffffffffffffffffffffffffffffffffffff161461034357600080fd5b80600080848152602001908152602001600020819055507fe23550ce55546f73f971a932ee4b14cd8070fc95c7da57ac7e4337476b5604d18282604051808381526020018281526020019250505060405180910390a15050565b6000806000838152602001908152602001600020549050919050565b60008060008381526020019081526020016000205490506000600160009054906101000a900473ffffffffffffffffffffffffffffffffffffffff1673ffffffffffffffffffffffffffffffffffffffff1663c41a360a846040518263ffffffff1660e01b81526004018082815260200191505060206040518083038186803b15801561044557600080fd5b505afa158015610459573d6000803e3d6000fd5b505050506040513d602081101561046f57600080fd5b810190808051906020019092919050505090508160001061048f57600080fd5b600260009054906101000a900473ffffffffffffffffffffffffffffffffffffffff1673ffffffffffffffffffffffffffffffffffffffff1663dd1a262d3383856040518463ffffffff1660e01b8152600401808473ffffffffffffffffffffffffffffffffffffffff1673ffffffffffffffffffffffffffffffffffffffff1681526020018373ffffffffffffffffffffffffffffffffffffffff1673ffffffffffffffffffffffffffffffffffffffff1681526020018281526020019350505050600060405180830381600087803b15801561056c57600080fd5b505af1158015610580573d6000803e3d6000fd5b50505050600160009054906101000a900473ffffffffffffffffffffffffffffffffffffffff1673ffffffffffffffffffffffffffffffffffffffff16632056201733856040518363ffffffff1660e01b8152600401808373ffffffffffffffffffffffffffffffffffffffff1673ffffffffffffffffffffffffffffffffffffffff16815260200182815260200192505050600060405180830381600087803b15801561062d57600080fd5b505af1158015610641573d6000803e3d6000fd5b505050506000806000858152602001908152602001600020819055508073ffffffffffffffffffffffffffffffffffffffff167f6b8e277b5ac199aea04139b79dce59b078ad22c9648f1bd3083495991809b770846040518082815260200191505060405180910390a250505056fea265627a7a723158207733379fe09ed6f4676557911721f7c17286f15aad3e8418460e92daf8213d9664736f6c63430005100032",
  "source": "pragma solidity 0.5.16;\n\nimport \"./ConvertLib.sol\";\nimport \"./MetaCoin.sol\";\nimport \"./NFT.sol\";\n\n\ncontract Market {\n\tmapping (uint => uint) prices;\n\tNFT NFTContract;\n\tMetaCoin MetaCoinContract;\n\n\tevent Purchase(uint nftId, address indexed prevOwner);\n\tevent Register(uint nftId, uint amount);\n\tevent Unregister(uint nftId);\n\n\tconstructor(address nftAddress, address tokenAddress) public {\n\t\tNFTContract = NFT(nftAddress);\n\t\tMetaCoinContract = MetaCoin(tokenAddress);\n\t}\n\n\tfunction getPrice(uint nftId) public view returns (uint) {\n\t\treturn prices[nftId];\n\t}\n\n\tfunction purchase(uint nftId) public {\n\n\t\tuint price = prices[nftId];\n\t\taddress prevOwner = NFTContract.getOwner(nftId);\n\n\t\trequire (0 < price);\n\t\t\t\t\n\t\tMetaCoinContract.sendCoinFrom(msg.sender, prevOwner, price);\n\t\tNFTContract.sendNftFrom(msg.sender, nftId);\n\t\tprices[nftId] = 0;\n\n\t\temit Purchase(nftId, prevOwner);\n\t}\n\n\tfunction register(uint nftId, uint amount) public {\n\t\trequire(NFTContract.getOwner(nftId) == msg.sender);\n\t\tprices[nftId] = amount;\n\t\temit Register(nftId, amount);\n\t}\n\n\tfunction unregister(uint nftId) public {\n\t\trequire(NFTContract.getOwner(nftId) == msg.sender);\n\t\tprices[nftId] = 0;\n\t\temit Unregister(nftId);\n\t}\n}",
  "sourcePath": "C:\\Users\\DASOM\\workspace\\nft-market-contracts\\contracts\\Market.sol",
  "compiler": {
    "name": "solc",
    "version": "0.5.16+commit.9c3226ce.Emscripten.clang"
  },
  "schemaVersion": "3.4.7",
  "updatedAt": "2022-06-09T14:21:18.990Z",
  "devdoc": {
    "methods": {}
  },
  "userdoc": {
    "methods": {}
  }
}