{
  "contractName": "MetaCoin",
  "abi": [
    {
      "inputs": [],
      "payable": false,
      "stateMutability": "nonpayable",
      "type": "constructor"
    },
    {
      "anonymous": false,
      "inputs": [
        {
          "indexed": true,
          "internalType": "address",
          "name": "addrFrom",
          "type": "address"
        },
        {
          "indexed": true,
          "internalType": "address",
          "name": "addrTo",
          "type": "address"
        },
        {
          "indexed": false,
          "internalType": "uint256",
          "name": "amount",
          "type": "uint256"
        }
      ],
      "name": "SendCoin",
      "type": "event"
    },
    {
      "constant": false,
      "inputs": [
        {
          "internalType": "address",
          "name": "addrTo",
          "type": "address"
        },
        {
          "internalType": "uint256",
          "name": "amount",
          "type": "uint256"
        }
      ],
      "name": "sendCoin",
      "outputs": [],
      "payable": false,
      "stateMutability": "nonpayable",
      "type": "function"
    },
    {
      "constant": true,
      "inputs": [
        {
          "internalType": "address",
          "name": "addr",
          "type": "address"
        }
      ],
      "name": "getBalance",
      "outputs": [
        {
          "internalType": "uint256",
          "name": "",
          "type": "uint256"
        }
      ],
      "payable": false,
      "stateMutability": "view",
      "type": "function"
    },
    {
      "constant": false,
      "inputs": [
        {
          "internalType": "address",
          "name": "addrTo",
          "type": "address"
        },
        {
          "internalType": "uint256",
          "name": "amount",
          "type": "uint256"
        }
      ],
      "name": "approveCoin",
      "outputs": [],
      "payable": false,
      "stateMutability": "nonpayable",
      "type": "function"
    },
    {
      "constant": false,
      "inputs": [
        {
          "internalType": "address",
          "name": "addrFrom",
          "type": "address"
        },
        {
          "internalType": "address",
          "name": "addrTo",
          "type": "address"
        },
        {
          "internalType": "uint256",
          "name": "amount",
          "type": "uint256"
        }
      ],
      "name": "sendCoinFrom",
      "outputs": [],
      "payable": false,
      "stateMutability": "nonpayable",
      "type": "function"
    }
  ],
  "bytecode": "0x608060405234801561001057600080fd5b50620186a06000803273ffffffffffffffffffffffffffffffffffffffff1673ffffffffffffffffffffffffffffffffffffffff168152602001908152602001600020819055506106b3806100666000396000f3fe608060405234801561001057600080fd5b506004361061004c5760003560e01c806390b98a1114610051578063a9bc9a981461009f578063dd1a262d146100ed578063f8b2cb4f1461015b575b600080fd5b61009d6004803603604081101561006757600080fd5b81019080803573ffffffffffffffffffffffffffffffffffffffff169060200190929190803590602001909291905050506101b3565b005b6100eb600480360360408110156100b557600080fd5b81019080803573ffffffffffffffffffffffffffffffffffffffff169060200190929190803590602001909291905050506102fe565b005b6101596004803603606081101561010357600080fd5b81019080803573ffffffffffffffffffffffffffffffffffffffff169060200190929190803573ffffffffffffffffffffffffffffffffffffffff169060200190929190803590602001909291905050506103d7565b005b61019d6004803603602081101561017157600080fd5b81019080803573ffffffffffffffffffffffffffffffffffffffff169060200190929190505050610636565b6040518082815260200191505060405180910390f35b806000803373ffffffffffffffffffffffffffffffffffffffff1673ffffffffffffffffffffffffffffffffffffffff1681526020019081526020016000205410156101fe57600080fd5b806000803373ffffffffffffffffffffffffffffffffffffffff1673ffffffffffffffffffffffffffffffffffffffff16815260200190815260200160002060008282540392505081905550806000808473ffffffffffffffffffffffffffffffffffffffff1673ffffffffffffffffffffffffffffffffffffffff168152602001908152602001600020600082825401925050819055508173ffffffffffffffffffffffffffffffffffffffff163373ffffffffffffffffffffffffffffffffffffffff167e169bd866c45961a435806e80079a9d7a17e0e2b7dac37df892f2e51373652c836040518082815260200191505060405180910390a35050565b806000803373ffffffffffffffffffffffffffffffffffffffff1673ffffffffffffffffffffffffffffffffffffffff16815260200190815260200160002054101561034957600080fd5b80600160003373ffffffffffffffffffffffffffffffffffffffff1673ffffffffffffffffffffffffffffffffffffffff16815260200190815260200160002060008473ffffffffffffffffffffffffffffffffffffffff1673ffffffffffffffffffffffffffffffffffffffff168152602001908152602001600020600082825401925050819055505050565b80600160008573ffffffffffffffffffffffffffffffffffffffff1673ffffffffffffffffffffffffffffffffffffffff16815260200190815260200160002060003373ffffffffffffffffffffffffffffffffffffffff1673ffffffffffffffffffffffffffffffffffffffff16815260200190815260200160002054101561046057600080fd5b806000808573ffffffffffffffffffffffffffffffffffffffff1673ffffffffffffffffffffffffffffffffffffffff1681526020019081526020016000205410156104ab57600080fd5b80600160008573ffffffffffffffffffffffffffffffffffffffff1673ffffffffffffffffffffffffffffffffffffffff16815260200190815260200160002060003373ffffffffffffffffffffffffffffffffffffffff1673ffffffffffffffffffffffffffffffffffffffff16815260200190815260200160002060008282540392505081905550806000808573ffffffffffffffffffffffffffffffffffffffff1673ffffffffffffffffffffffffffffffffffffffff16815260200190815260200160002060008282540392505081905550806000808473ffffffffffffffffffffffffffffffffffffffff1673ffffffffffffffffffffffffffffffffffffffff168152602001908152602001600020600082825401925050819055508173ffffffffffffffffffffffffffffffffffffffff168373ffffffffffffffffffffffffffffffffffffffff167e169bd866c45961a435806e80079a9d7a17e0e2b7dac37df892f2e51373652c836040518082815260200191505060405180910390a3505050565b60008060008373ffffffffffffffffffffffffffffffffffffffff1673ffffffffffffffffffffffffffffffffffffffff16815260200190815260200160002054905091905056fea265627a7a72315820c9e81fdc992e9619e9a591ca800d065d84f923e5e24df3a401b920a1bf7e4b8b64736f6c63430005100032",
  "source": "pragma solidity 0.5.16;\n\nimport \"./ConvertLib.sol\";\n\n\ncontract MetaCoin {\n\tmapping (address => uint) balances;\n\tmapping (address => mapping (address => uint)) approves;\n\n\tevent SendCoin(address indexed addrFrom, address indexed addrTo, uint amount);\n\n\tconstructor () public {\n\t\tbalances[tx.origin] = 100000;\n\t}\n\n\t//  호출자의 돈을 전송하는 함수\n\tfunction sendCoin(address addrTo, uint amount) public {\n\t\trequire (balances[msg.sender] >= amount);\n\t\tbalances[msg.sender] -= amount;\n\t\tbalances[addrTo] += amount;\n\t\temit SendCoin(msg.sender, addrTo, amount);\n\t}\n\n\tfunction getBalance(address addr) public view returns(uint) {\n\t\treturn balances[addr];\n\t}\n\n\t// 호출자의 돈을 To에게 허락하는 함수\n\tfunction approveCoin(address addrTo, uint amount) public {\n\t\trequire (balances[msg.sender] >= amount);\n\t\tapproves[msg.sender][addrTo] += amount;\n\t}\n\n\t// 호출자에게 허락된 From의 돈을 To에게 전송하는 함수\n\tfunction sendCoinFrom(address addrFrom, address addrTo, uint amount) public {\n\t\trequire (approves[addrFrom][msg.sender] >= amount);\n\t\trequire (balances[addrFrom] >= amount);\n\n\t\tapproves[addrFrom][msg.sender] -= amount;\n\t\tbalances[addrFrom] -=amount;\n\t\tbalances[addrTo] += amount;\n\n\t\temit SendCoin(addrFrom, addrTo, amount);\n\t}\n\n}\n",
  "sourcePath": "C:\\Users\\DASOM\\workspace\\nft-market-contracts\\contracts\\MetaCoin.sol",
  "compiler": {
    "name": "solc",
    "version": "0.5.16+commit.9c3226ce.Emscripten.clang"
  },
  "schemaVersion": "3.4.7",
  "updatedAt": "2022-06-09T14:21:18.997Z",
  "devdoc": {
    "methods": {}
  },
  "userdoc": {
    "methods": {}
  }
}