{
  "contractName": "NFT",
  "abi": [
    {
      "anonymous": false,
      "inputs": [
        {
          "indexed": false,
          "internalType": "uint256",
          "name": "nftId",
          "type": "uint256"
        },
        {
          "indexed": false,
          "internalType": "string",
          "name": "nftContent",
          "type": "string"
        },
        {
          "indexed": false,
          "internalType": "address",
          "name": "owner",
          "type": "address"
        }
      ],
      "name": "Mint",
      "type": "event"
    },
    {
      "anonymous": false,
      "inputs": [
        {
          "indexed": true,
          "internalType": "address",
          "name": "addrFrom",
          "type": "address"
        },
        {
          "indexed": true,
          "internalType": "address",
          "name": "addrTo",
          "type": "address"
        },
        {
          "indexed": false,
          "internalType": "uint256",
          "name": "nftId",
          "type": "uint256"
        }
      ],
      "name": "SendNft",
      "type": "event"
    },
    {
      "constant": false,
      "inputs": [
        {
          "internalType": "string",
          "name": "nft",
          "type": "string"
        }
      ],
      "name": "mint",
      "outputs": [],
      "payable": false,
      "stateMutability": "nonpayable",
      "type": "function"
    },
    {
      "constant": false,
      "inputs": [
        {
          "internalType": "address",
          "name": "addrTo",
          "type": "address"
        },
        {
          "internalType": "uint256",
          "name": "nftId",
          "type": "uint256"
        }
      ],
      "name": "sendNft",
      "outputs": [],
      "payable": false,
      "stateMutability": "nonpayable",
      "type": "function"
    },
    {
      "constant": true,
      "inputs": [
        {
          "internalType": "uint256",
          "name": "nftId",
          "type": "uint256"
        }
      ],
      "name": "getOwner",
      "outputs": [
        {
          "internalType": "address",
          "name": "",
          "type": "address"
        }
      ],
      "payable": false,
      "stateMutability": "view",
      "type": "function"
    },
    {
      "constant": false,
      "inputs": [
        {
          "internalType": "address",
          "name": "addrTo",
          "type": "address"
        },
        {
          "internalType": "uint256",
          "name": "nftId",
          "type": "uint256"
        }
      ],
      "name": "approve",
      "outputs": [],
      "payable": false,
      "stateMutability": "nonpayable",
      "type": "function"
    },
    {
      "constant": false,
      "inputs": [
        {
          "internalType": "address",
          "name": "addrTo",
          "type": "address"
        },
        {
          "internalType": "uint256",
          "name": "nftId",
          "type": "uint256"
        }
      ],
      "name": "approveNft",
      "outputs": [],
      "payable": false,
      "stateMutability": "nonpayable",
      "type": "function"
    },
    {
      "constant": false,
      "inputs": [
        {
          "internalType": "address",
          "name": "addrTo",
          "type": "address"
        },
        {
          "internalType": "uint256",
          "name": "nftId",
          "type": "uint256"
        }
      ],
      "name": "sendNftFrom",
      "outputs": [],
      "payable": false,
      "stateMutability": "nonpayable",
      "type": "function"
    },
    {
      "constant": true,
      "inputs": [
        {
          "internalType": "uint256",
          "name": "nftId",
          "type": "uint256"
        }
      ],
      "name": "getNft",
      "outputs": [
        {
          "internalType": "string",
          "name": "",
          "type": "string"
        }
      ],
      "payable": false,
      "stateMutability": "view",
      "type": "function"
    }
  ],
  "bytecode": "0x608060405234801561001057600080fd5b50610cca806100206000396000f3fe608060405234801561001057600080fd5b506004361061007d5760003560e01c806341f63bfd1161005b57806341f63bfd1461016c578063899b789814610213578063c41a360a14610261578063d85d3d27146102cf5761007d565b8063095ea7b3146100825780630f156837146100d0578063205620171461011e575b600080fd5b6100ce6004803603604081101561009857600080fd5b81019080803573ffffffffffffffffffffffffffffffffffffffff1690602001909291908035906020019092919050505061038a565b005b61011c600480360360408110156100e657600080fd5b81019080803573ffffffffffffffffffffffffffffffffffffffff1690602001909291908035906020019092919050505061049f565b005b61016a6004803603604081101561013457600080fd5b81019080803573ffffffffffffffffffffffffffffffffffffffff169060200190929190803590602001909291905050506105c5565b005b6101986004803603602081101561018257600080fd5b8101908080359060200190929190505050610869565b6040518080602001828103825283818151815260200191508051906020019080838360005b838110156101d85780820151818401526020810190506101bd565b50505050905090810190601f1680156102055780820380516001836020036101000a031916815260200191505b509250505060405180910390f35b61025f6004803603604081101561022957600080fd5b81019080803573ffffffffffffffffffffffffffffffffffffffff16906020019092919080359060200190929190505050610922565b005b61028d6004803603602081101561027757600080fd5b8101908080359060200190929190505050610a37565b604051808273ffffffffffffffffffffffffffffffffffffffff1673ffffffffffffffffffffffffffffffffffffffff16815260200191505060405180910390f35b610388600480360360208110156102e557600080fd5b810190808035906020019064010000000081111561030257600080fd5b82018360208201111561031457600080fd5b8035906020019184600183028401116401000000008311171561033657600080fd5b91908080601f016020809104026020016040519081016040528093929190818152602001838380828437600081840152601f19601f820116905080830192505050505050509192919290505050610a74565b005b6001600082815260200190815260200160002060009054906101000a900473ffffffffffffffffffffffffffffffffffffffff1673ffffffffffffffffffffffffffffffffffffffff163373ffffffffffffffffffffffffffffffffffffffff16146103f557600080fd5b6001600260003373ffffffffffffffffffffffffffffffffffffffff1673ffffffffffffffffffffffffffffffffffffffff16815260200190815260200160002060008473ffffffffffffffffffffffffffffffffffffffff1673ffffffffffffffffffffffffffffffffffffffff168152602001908152602001600020600083815260200190815260200160002060006101000a81548160ff0219169083151502179055505050565b6001600082815260200190815260200160002060009054906101000a900473ffffffffffffffffffffffffffffffffffffffff1673ffffffffffffffffffffffffffffffffffffffff163373ffffffffffffffffffffffffffffffffffffffff161461050a57600080fd5b816001600083815260200190815260200160002060006101000a81548173ffffffffffffffffffffffffffffffffffffffff021916908373ffffffffffffffffffffffffffffffffffffffff1602179055508173ffffffffffffffffffffffffffffffffffffffff163373ffffffffffffffffffffffffffffffffffffffff167fcacc637c3df7cc80952f351451ccbeeeb9a98349669f3f8bb6f21e1f130ce649836040518082815260200191505060405180910390a35050565b600260006001600084815260200190815260200160002060009054906101000a900473ffffffffffffffffffffffffffffffffffffffff1673ffffffffffffffffffffffffffffffffffffffff1673ffffffffffffffffffffffffffffffffffffffff16815260200190815260200160002060003373ffffffffffffffffffffffffffffffffffffffff1673ffffffffffffffffffffffffffffffffffffffff168152602001908152602001600020600082815260200190815260200160002060009054906101000a900460ff1661069c57600080fd5b60006001600083815260200190815260200160002060009054906101000a900473ffffffffffffffffffffffffffffffffffffffff169050826001600084815260200190815260200160002060006101000a81548173ffffffffffffffffffffffffffffffffffffffff021916908373ffffffffffffffffffffffffffffffffffffffff1602179055506000600260006001600086815260200190815260200160002060009054906101000a900473ffffffffffffffffffffffffffffffffffffffff1673ffffffffffffffffffffffffffffffffffffffff1673ffffffffffffffffffffffffffffffffffffffff16815260200190815260200160002060003373ffffffffffffffffffffffffffffffffffffffff1673ffffffffffffffffffffffffffffffffffffffff168152602001908152602001600020600084815260200190815260200160002060006101000a81548160ff0219169083151502179055508273ffffffffffffffffffffffffffffffffffffffff168173ffffffffffffffffffffffffffffffffffffffff167fcacc637c3df7cc80952f351451ccbeeeb9a98349669f3f8bb6f21e1f130ce649846040518082815260200191505060405180910390a3505050565b60606000828154811061087857fe5b906000526020600020018054600181600116156101000203166002900480601f0160208091040260200160405190810160405280929190818152602001828054600181600116156101000203166002900480156109165780601f106108eb57610100808354040283529160200191610916565b820191906000526020600020905b8154815290600101906020018083116108f957829003601f168201915b50505050509050919050565b6001600082815260200190815260200160002060009054906101000a900473ffffffffffffffffffffffffffffffffffffffff1673ffffffffffffffffffffffffffffffffffffffff163373ffffffffffffffffffffffffffffffffffffffff161461098d57600080fd5b6001600260003373ffffffffffffffffffffffffffffffffffffffff1673ffffffffffffffffffffffffffffffffffffffff16815260200190815260200160002060008473ffffffffffffffffffffffffffffffffffffffff1673ffffffffffffffffffffffffffffffffffffffff168152602001908152602001600020600083815260200190815260200160002060006101000a81548160ff0219169083151502179055505050565b60006001600083815260200190815260200160002060009054906101000a900473ffffffffffffffffffffffffffffffffffffffff169050919050565b6000819080600181540180825580915050906001820390600052602060002001600090919290919091509080519060200190610ab1929190610bf0565b50503360016000600160008054905003815260200190815260200160002060006101000a81548173ffffffffffffffffffffffffffffffffffffffff021916908373ffffffffffffffffffffffffffffffffffffffff1602179055507f983d37d8751fcfa80e95e5fe2c0f46fb7b541b280961dc7ac00aa2670e2edd87600160008054905003823360405180848152602001806020018373ffffffffffffffffffffffffffffffffffffffff1673ffffffffffffffffffffffffffffffffffffffff168152602001828103825284818151815260200191508051906020019080838360005b83811015610bb1578082015181840152602081019050610b96565b50505050905090810190601f168015610bde5780820380516001836020036101000a031916815260200191505b5094505050505060405180910390a150565b828054600181600116156101000203166002900490600052602060002090601f016020900481019282601f10610c3157805160ff1916838001178555610c5f565b82800160010185558215610c5f579182015b82811115610c5e578251825591602001919060010190610c43565b5b509050610c6c9190610c70565b5090565b610c9291905b80821115610c8e576000816000905550600101610c76565b5090565b9056fea265627a7a723158201505e995eb812475cefde3884fca7c9d301202749c6a1767bcf487cc1557043864736f6c63430005100032",
  "source": "pragma solidity 0.5.16;\n\nimport \"./ConvertLib.sol\";\n\ncontract NFT {\n\tstring[] nfts;\n\tmapping (uint => address) owners;\n\tmapping (address => mapping(address => mapping(uint => bool))) approves;\n\n\tevent Mint(uint nftId, string nftContent, address owner);\n\tevent SendNft(address indexed addrFrom, address indexed addrTo, uint nftId);\n\n\tfunction mint(string memory nft) public {\n\t\tnfts.push(nft);\n\t\towners[nfts.length - 1] = msg.sender;\n\t\temit Mint(nfts.length - 1, nft, msg.sender);\n\t}\n\n\t// 호출자의 NFT를 To에게 전송하는 함수\n\tfunction sendNft(address addrTo, uint nftId) public {\n\t\trequire(msg.sender == owners[nftId]);\n\t\towners[nftId] = addrTo;\n\t\temit SendNft(msg.sender ,addrTo, nftId);\n\t}\n\n\tfunction getOwner(uint nftId) public view returns (address){\n\t\treturn owners[nftId];\n\t}\n\n\t// 호출자의 NFT를 To에게 허락하는 함수\n\tfunction approve(address addrTo, uint nftId) public {\n\t\trequire(msg.sender == owners[nftId]);\n\t\tapproves[msg.sender][addrTo][nftId] = true;\n\t}\n\n\t\n\t// 호출자의 NFT를 To에게 허락하는 함수\n\tfunction approveNft(address addrTo, uint nftId) public {\n\t\trequire(msg.sender == owners[nftId]);\n\t\tapproves[msg.sender][addrTo][nftId] = true;\n\t}\n\n\t// 호출자에게 허락된 NFT를 Toㅇ에게 전송할 수 있게 해 주는 함수 \n\t// nft의 주인은 nft의 아이디로 알아낼 수 있음. 따라서 From 파라미터는 생략됨.\n\tfunction sendNftFrom(address addrTo, uint nftId) public {\n\t\trequire(approves[owners[nftId]][msg.sender][nftId]); // \n\t\taddress addrFrom = owners[nftId];\n\t\towners[nftId] = addrTo;\n\t\tapproves[owners[nftId]][msg.sender][nftId] = false;\n\t\temit SendNft(addrFrom, addrTo, nftId);\n\t}\n\n\tfunction getNft(uint nftId) public view returns (string memory) {\n\t\treturn nfts[nftId];\n\t}\n}",
  "sourcePath": "C:\\Users\\DASOM\\workspace\\nft-market-contracts\\contracts\\NFT.sol",
  "compiler": {
    "name": "solc",
    "version": "0.5.16+commit.9c3226ce.Emscripten.clang"
  },
  "schemaVersion": "3.4.7",
  "updatedAt": "2022-06-09T15:06:06.535Z",
  "networkType": "ethereum",
  "devdoc": {
    "methods": {}
  },
  "userdoc": {
    "methods": {}
  }
}